:1000000045C0000060C000005EC000005CC0000091
:100010005AC0000058C0000056C0000054C0000084
:1000200052C0000050C000004EC000004CC0000094
:100030004AC0000048C0000046C0000044C00000A4
:1000400042C0000040C00000BBC000003CC0000037
:10005000C6C0000038C0000036C0000034C0000038
:1000600032C0000030C000002EC000002CC00000D4
:100070002AC0000028C0000026C0000024C00000E4
:1000800022C0000020C000001EC0000011241FBEBE
:10009000CFEFD0E1DEBFCDBF11E0A0E0B1E0E6E3FD
:1000A000F3E000E00BBF02C007900D92AA33B10746
:1000B000D9F721E0AAE3B1E001C01D92AB33B2074A
:1000C000E1F7ACD036C19CCFE5E6F0E090819460DA
:1000D000908390819D7F908390819160908396EF33
:1000E0009A95F1F78BBB86EF8A95F1F780818E7F29
:1000F00080830895E5E6F0E090819B7F9083908176
:100100009D7F908390819160908396EF9A95F1F70F
:100110008BBB86EF8A95F1F780818E7F808308956F
:1001200020E030E007C0E6E6FEE03197F1F700009E
:100130002F5F3F4F482F50E024173507A4F3089551
:10014000CF93C82F81E0ECDF8C2FBEDFCF910895D5
:10015000CF93DF93EC0102C0F3DF219688818111F8
:10016000FBCFDF91CF91089590E4899F600D11241A
:10017000862F8068BFCF089581E0BCDF82E0D0CFBA
:1001800008958FEF8ABBE4E6F0E080818F60808382
:100190000895F7DF88E3AEDF84E0C2DF88E3AADFFB
:1001A00084E0BEDF88E3A6DF84E0BADF8EE0A2DF72
:1001B00082E0B6DF86E09EDF82E0B2DFDDCF089529
:1001C0001F920F920FB60F9211248F938CB18093D0
:1001D0003A018F910F900FBE0F901F9018951F92AC
:1001E0000F920FB60F9211248F9380913A018CB920
:1001F0008F910F900FBE0F901F9018951BB888ED30
:100200008AB986E080939D00E5E9F0E080818F7BEC
:100210008083109290008FE589B9089587B3806636
:1002200087BB88B3806688BB82EA8FBD8BE18EBDB9
:1002300087E893E197BD86BD87E791E09BBD8ABDC6
:1002400099BD88BDDBDF7894A4DF96DF60E080E0B5
:100250008BDF8AEF90E099BD88BD2FEF8FEF9CE296
:10026000215080409040E1F700C0000087E791E016
:1002700099BD88BD2FEF8FEF9CE2215080409040C8
:10028000E1F700C0000084EF91E099BD88BD2FEF39
:100290008FEF9CE2215080409040E1F700C00000C9
:1002A00080913A01813371F460E080E05DDF80E0AD
:1002B00091E04EDF8AEF90E09BBD8ABD80E38093A2
:1002C0003A01C7CF823371F460E080E04DDF8AE00D
:1002D00091E03EDF8DE491E09BBD8ABD80E3809399
:1002E0003A01B7CF833371F460E080E03DDF84E111
:1002F00091E02EDF80EA91E09BBD8ABD80E3809390
:100300003A01A7CF843371F460E080E02DDF8EE105
:1003100091E01EDF84EF91E09BBD8ABD80E3809376
:100320003A0197CF60E080E01FDF88E291E010DFC4
:0603300090CFF894FFCF0E
:1003360031737420466C6F6F7200326E6420466CA7
:100346006F6F720033726420466C6F6F7200347484
:100356006820466C6F6F7200456E7465722031744A
:0A0366006F3420666C6F6F720000A8
:00000001FF
